:020000040800F2
:10000000E84A0020ED01000879550008514E00082B
:1000100075550008050800089D68000800000000EC
:10002000000000000000000000000000DB59000894
:100030009113000800000000C3570008DD590008B4
:10004000070200080702000807020008070200086C
:10005000070200080702000807020008070200085C
:1000600007020008070200080702000885130008BD
:10007000070200080702000807020008070200083C
:100080000702000807020008ED0400080702000844
:10009000070200080702000807020008070200081C
:1000A000070200080702000807020008070200080C
:1000B000935A000807020008070200080702000818
:1000C00007020008070200080702000807020008EC
:1000D000070200080702000807020008E766000898
:1000E00007020008070200080702000807020008CC
:1000F00007020008070200080702000807020008BC
:1001000007020008070200080702000807020008AB
:10011000070200080702000807020008070200089B
:10012000070200080702000807020008070200088B
:10013000070200080702000807020008070200087B
:10014000070200080702000807020008000000007C
:10015000000000000000000000000000000000009F
:10016000000000000000000000000000070200087E
:10017000070200080702000807020008070200083B
:10018000070200080702000807020008070200082B
:10019000070200080000000007020008070200082C
:1001A000070200080702000807020008070200080B
:1001B00007020008070200080702000807020008FB
:1001C00007020008070200080702000807020008EB
:1001D0000702000807020008DFF80CD000F074F9ED
:1001E00000480047D9690008E84A002006488047CF
:1001F00006480047FEE7FEE7FEE7FEE7FEE7FEE70C
:10020000FEE7FEE7FEE7FEE7775A0008D90100089F
:100210002DE9F05F0546002092469B46884606463B
:10022000814640241BE0284641464746224600F0CE
:10023000E4F853465A46C01A914110D31146184665
:10024000224600F0CBF82D1A67EB01084F462246F4
:100250000120002100F0C2F817EB00094E41201EDA
:10026000A4F10104DFDC484631462A464346BDE896
:10027000F09F2DE9F0410024061B254671F1000690
:1002800005DA01240027D0EB070067EB0101161EF9
:1002900073F1000605DA0027D2EB0702012567EBB0
:1002A0000303FFF7B5FF86460E4617469C46AC4251
:1002B00004D00025D0EB050E65EB010624B100202B
:1002C000D2EB000760EB030C704631463A466346BA
:1002D000BDE8F08140EA01039B0703D009E008C9AB
:1002E000121F08C0042AFAD203E011F8013B00F8FB
:1002F000013B521EF9D27047D2B201E000F8012B47
:10030000491EFBD270470022F6E710B513460A4695
:1003100004461946FFF7F0FF204610BD30B5041E15
:1003200071F1000404DB4FF00044404264EB010132
:10033000141E73F1000405DB1C464FF000435242CB
:1003400063EB0403801A994101D2012030BD0020E3
:1003500030BDF0B4CA17CB0F50405140C61841F120
:1003600000054FEAC372314628004FF0960303D0D0
:10037000B623F0BC00F05AB830460021F9E700F08F
:10038000004230F000400AD0C10D01F56071C0F3A9
:10039000160042EA0151C20840071143704700208D
:1003A0000146704701F0004330B421F0004150EAAB
:1003B000010206D00A0DA2F56072C1F31301002AF2
:1003C00002DC30BC00207047440F44EAC104C10085
:1003D000E01830BC00EBC25000F01FB8202A04DB4C
:1003E000203A00FA02F1002070479140C2F1200348
:1003F00020FA03F3194390407047202A04DB203A87
:1004000021FA02F00021704721FA02F3D040C2F134
:10041000200291400843194670470029A8BF704741
:10042000401C490008BF20F00100704710B4B0FA2A
:1004300080FC00FA0CF050EA010404BF10BC7047C5
:1004400049B1CCF1200421FA04F411FA0CF118BFDF
:10045000012121430843A3EB0C01CB1D4FEA0061AE
:100460004FEA102042BF002010BC704700EBC35081
:1004700010440029A4BF10BC7047401C490008BFAD
:1004800020F0010010BC704710B541000CD0C0F343
:10049000C751962908DC7E2909DC06DB410204D01D
:1004A00000F0004040F07E5010BD002010BDC1F1B2
:1004B0009604C4F1200100FA01F1E040FFF7ADFF1E
:1004C000A04010BD00207047064C074D06E0E068D4
:1004D00040F0010394E8070098471034AC42F6D38B
:1004E000FFF77EFEB47B0008D47B000880B540F2A5
:1004F000F030C2F2000001F0BAFD40F25C40C2F2FE
:10050000000001F0B4FD40F23000C2F200000178BA
:1005100011B10021017080BD01210170BDE8804052
:1005200004F09EBC70B5044600688168C9072CD1F0
:100530004FF6C076C7F6FF76816806F17F0211425A
:1005400019D18168314041F00101816002F020FC45
:10055000054600BF20680168C90716D18168C90730
:1005600004D18168314041F00101816002F010FC4A
:10057000401B0328EED3E06D40F01000E065206ED4
:1005800040F001002066012070BD002070BD000019
:1005900080B501F02BFA40F23100C2F20000007881
:1005A000002818BF80BDBDE8804006F015B90000E6
:1005B000B0B52DED028B40F2B860C2F200000168C8
:1005C0004A1CB1F5F97F026002DCBDEC028BB0BDC4
:1005D00040F2BC62C2F20002136800210160581CA4
:1005E000632B106017DC40F25000C2F2000090ED67
:1005F000010A9FED621AB7EE002A30EE010ABFEE43
:10060000001AB4EE420A30EE011AF1EE10FAC8BF39
:10061000B0EE410A56E041F2EC31884239D840F25E
:10062000C800C2F2000090ED070A9FED521A40F296
:100630005004C2F2000420EE010A94ED018ABDEEDE
:10064000C00A10EE105A28EE010A06F0EDFBBDEECE
:10065000C00A10EE100A41F28731884240F2C061B0
:100660009FED460AC2F2000188BF0020096838EEFB
:10067000000AB7EE002ABFEE001AB4EE420A21F8D3
:10068000105030EE011AF1EE10FAC8BFB0EE410A78
:100690005EE041F25041884219D840F25000C2F267
:1006A000000090ED010A9FED341A30EE010AB7EE1A
:1006B000001AB5EE400A30EE011AF1EE10FAB8BF9A
:1006C000B0EE410A80ED010ABDEC028BB0BD42F2F2
:1006D000D871884241D840F2C800C2F2000090EDC3
:1006E000070A9FED241A40F25004C2F2000420EEE3
:1006F000010A94ED018ABDEEC00A10EE105A28EEF0
:10070000010A06F091FBBDEEC00A10EE100A41F29C
:100710008731884240F2C061C2F20001096888BF97
:10072000002031F910209FED140A2A4402EBD27206
:1007300038EE000A5208B7EE001AB5EE400A21F86A
:10074000102030EE011AF1EE10FAB8BFB0EE410AF7
:1007500084ED010ABDEC028BB0BD40F23101C2F262
:100760000001012201200A70BDEC028BBDE8B040FF
:1007700004F06ABC00409C4517B751B917B751390E
:1007800040F2BC60C2F200000021016040F2B8609B
:10079000C2F20000016040F23100C2F200000170BC
:1007A00006F01AB8014640F480400022034600BF1C
:1007B0005A405B08FCD180B5D20718BF41F44040D5
:1007C00005F022F800BF00BF00BF00BF00BF00BFA0
:1007D00000BF00BF00BF00BF00BF00BF00BF00BF21
:1007E00000BF00BF00BF00BF00BF4FF4804000BF8C
:1007F00005F00AF840F2E831C2F200016FF39F30D1
:10080000088080BDFEE7B0B501F0F0F840F2C464A6
:10081000C2F20004206840F2B061C2F2000100257B
:100820000D7010B104F049FA256005F091FF18B180
:1008300005F0D2FF002000E0012040F23101C2F2B9
:1008400000010870B0BD00002DE9F04F81B02DED22
:10085000028B82B040F2B066C2F20006307840F2FD
:100860003405411E0D29C2F2000500F27482286889
:1008700040F2741BC2F2000B00EE100A9FEDDA1A70
:100880009BED023A9BED062AB8EE400A20EE018A63
:1008900022EE030AB0EE081A20EE010AB6EE003A84
:1008A00020EE030ADFE811F00E0017003D005000B3
:1008B0006C009800BF00E400AA010001E8011301E8
:1008C0006101780140F248010020C2F20001286075
:1008D000086002203EE240F2C800C2F2000090ED43
:1008E000030A40F24800C2F200009FEDC01A32EE47
:1008F000400A90ED002ADFEDBE0A20EE010A30EE3C
:10090000020AB0EE601A80ED000A01F0DDF82868F6
:1009100049F640418842C0F01E8204F0D5FE032013
:1009200018E240F24800C2F2000090ED000A01A86F
:1009300080EE020A30EE000A80EE010A8BED020A18
:1009400006F01BF8042005E240F21C110020C2F260
:1009500000012860086048609BED071A40F24800DB
:10096000DFEDA30AC2F20000B1EE410A80ED011AE8
:10097000B0EE601A80ED000A01F0A6F80520E9E16A
:1009800040F2C801C2F2000191ED030A40F21C11CD
:1009900000F00100C2F2000101EB800191ED001AAC
:1009A000DFED930A30EE010A81ED000A40F24801C2
:1009B000C2F2000101EB800090ED000AB0EE601A77
:1009C00001F082F8286844F620618842C0F0C381B3
:1009D00004F07AFE0620BDE140F21C10C2F20000D5
:1009E00090ED010A90ED002A30EE420A9BED072AB5
:1009F00030EE000A82EE000A30EE000A80EE011AA4
:100A00009BED0C0A8BED031A01F038F89BED030AFD
:100A100001A805F0B2FF40F23C00C2F20000002144
:100A20000160072051E040F23C00C2F2000028EED5
:100A3000000A90ED001ADFED6E0A20EE030A01F0C5
:100A400043F8B0EE000AB4EE408AF1EE10FAC0F2BC
:100A5000828140F28800C2F20000D0E90401FFF771
:100A600078FC40F24401C2F200010860082071E104
:100A700040F23C04C2F2000494ED001A9FED5D2A9E
:100A8000DFED5B0A31EE021A84ED001A01F01CF86A
:100A900094ED000A9FED581AB4EE410AF1EE10FAF7
:100AA000A4BF0920307056E140F23C00C2F20000C1
:100AB0000021016040F24000C2F20000018040F2DB
:100AC0003800C2F2000001600B20296042E140F2D0
:100AD0004000C2F20000028813B2002B00F13781FF
:100AE00040F23807C2F2000797ED002A40F23C0EB0
:100AF000B4EE428AF1EE10FAC2F2000E40F39F818A
:100B00009BED014A9EED001A9FEDDD3A9FEDDD5A07
:100B1000B8EE444A24EE054A21EE033A83EE043A45
:100B20009FEDD64A4FF4804C32EE042A87ED002A1E
:100B300040F28807C2F200077F68BDEEC32A12EEBA
:100B4000106ABF1B40F2C466C2F2000636680CEAA7
:100B5000574156F8224027440F4407EBD7777F10C0
:100B600046F822705A1E02806BE1DBF8040040F266
:100B7000C464C2014FF00008C2F2000400F0F48027
:100B8000236800201746002153F8046B801941EBBD
:100B9000E671013FF8D1E9E040F24004C2F20004FE
:100BA00020887F2800F2B38040F23801C2F20001B1
:100BB00091ED000AB4EE408AF1EE10FA40F3CB80DA
:100BC0009FEDB51A0BEB800030EE010A90ED1B1A79
:100BD00081ED000AB8EEC10A01A805F0CEFE20881A
:100BE00001302080B7E000BF17B7513817B7D138B0
:100BF00000000000BEB52439DB0F494240F28800F6
:100C0000C2F20000D0E90401FFF7A3FB40F2440167
:100C1000C2F2000191ED000A01EE100A31EE400A25
:100C2000BDEEC01A9FED9B0AB8EEC12A22EE000A63
:100C3000B0EEC00AB2EE002A82EE000A11EE100AEF
:100C400001210128B8BF4FF0FF31CBF8641006F046
:100C500007F9BCEEC00A01AC8BED010AB8EE400A00
:100C6000204605F08AFE9BED190A2046B8EEC00A20
:100C700005F083FE0A206DE040F24000C2F2000061
:100C8000B0F90020DBF8047091B2B2EBC71F47D275
:100C900040F23803C2F2000393ED002AB4EE428A18
:100CA000F1EE10FA40F3D48040F23C06C2F20006A6
:100CB00096ED001A9FED723A04EE107A9FED715A8C
:100CC000B8EE444A24EE054A21EE033A83EE043A94
:100CD0009FED6A4A40F2C46632EE042A83ED002A90
:100CE00040F28803C2F200035B68C2F20006366875
:100CF00001310180BDEEC32A12EE107ADB1B4FF4E6
:100D0000804707EA53473B4446F82230A6E00020DC
:100D100030700120CBF86000012004F095F91AE052
:100D200040F23C02C2F2000292ED000A9FED561A18
:100D3000013930EE010A018040F2380082ED000AEC
:100D40000022C2F2000002600C202A6002E004F0DF
:100D5000BBFC0D20307028680130286002B0BDEC6B
:100D6000028B01B0BDE8F08F002000210023FFF7C7
:100D700080FA00EE100ACBF86800B8EEC00A01A8AD
:100D800005F0FBFD20684FF0000C0168C1F3D11E97
:100D9000DBF804104FF0FF32CE0102EBC11508FB67
:100DA00001F121F07E4700226FF03F01002400BFD7
:100DB00007EB01094FF0000AA94588BFC6F1000AF8
:100DC000B9F1000F48BFB24609EB0A0350F82330CF
:100DD0000131D21844EBE3744029E9D1E11712EB59
:100DE000516144F10002C90941EA42610CEB0E0273
:100DF000DBF868407F2A88BF803A0CF1010C091BA0
:100E00000BEB8202BCF1800F08F10108D166BFD163
:100E100040F240010020C2F20001088040F2380197
:100E200040F23405C2F20001C2F20005086040F24F
:100E3000B06128600E20C2F2000108708BE79EEDC1
:100E4000001A9FED112A31EE021A8EED001A0FE002
:100E500040F23C00C2F2000090ED001A9FED0C2A17
:100E600040F23C0031EE021AC2F2000080ED001A9E
:100E7000DFED060A00F028FE6DE700BF0000803CB1
:100E800000008046DB0FC940BEB524B90000000059
:100E9000BEB52439000080386F12833AB0B540F2F5
:100EA000C064C2F20004206840B140F23101C2F2D5
:100EB000000100250D7003F000FF256040F2C464BE
:100EC000C2F20004206820B94FF4705003F018FFFC
:100ED000206040F27410C2F2000001210022C0E93B
:100EE000182140F2B060C2F200000170B0BD0000F5
:100EF00040F27410C2F2000090ED140A9FED0B1A3C
:100F000090F8341020EE010A30EE000A40F2500250
:100F100020EE001AB5EE002AC2F2000221EE021AFB
:100F2000116082ED0B1A82ED0C0A7047DB0FC9408D
:100F3000F0B581B02DED108B40F28806C2F20006AC
:100F400096ED06BA96ED07AA96ED088A96ED099AEF
:100F500003F080FF40F2741540F250040228C2F200
:100F60000005C2F2000428D12068032800F2F180B5
:100F7000DFE800F0024E84AF95ED120A9FEDDB1A18
:100F800094ED092A20EE010A94ED031AB0EEC00A8E
:100F900031EE421AB1EE403AB4EE431AF1EE10FAD5
:100FA000C8BFB0EE413AB4EE430AF1EE10FAB8BF52
:100FB000B0EE403A32EE030AC9E096ED021A9FED18
:100FC000CA2A94ED010AB8EEC11A21EE021A30EED7
:100FD000010ABFEE001AB6EE002A30EE011AB4EE96
:100FE000420ABEEE002AF1EE10FAC8BFB0EE410A86
:100FF000B7EE001AB4EE420A95ED082A30EE011A57
:10100000F1EE10FAB8BFB0EE410A22EE001AAFE0DE
:1010100095ED130A9FEDB51A94ED083A20EE012ADA
:1010200094ED020AB0EEC22A30EE434AB1EE425AC3
:10103000B4EE454AF1EE10FAC8BFB0EE445AB4EE31
:10104000452AF1EE10FAB8BFB0EE425A85EE011A09
:1010500095ED0B2A33EE053A40F2241084ED083A60
:10106000C2F2000022EE011A84ED091A0168890714
:101070006FD495ED101A30EE4A0A50E094ED010A53
:1010800094ED021A94ED072A94ED083A94ED0C4A77
:1010900094ED0B5A30EE420A31EE431A21EE041A57
:1010A00025EE000A30EE010A95ED0B1A9FED8F4AEE
:1010B00021EE001A20EE040A30EE030A20EE043A74
:1010C00033EE022A84ED072A84ED080A84ED091A1A
:1010D0003FE094F8280070B105F1540194ED010A45
:1010E000D4ED070A94ED081AD1EC031A002084F815
:1010F000280004F07DFF40F23417C2F2000797F891
:101100003C00C0B140F22410C2F20000016889071F
:101110001FD494ED010A95ED111A30EE4B0AB0EE92
:10112000C00AB4EE410AF1EE10FA12DA016841F099
:10113000020101600DE004F0D7FE97ED020A95ED83
:101140000B1AD7E9000120EE010AE061216284ED6B
:10115000090A206894ED081A022809DB94ED070AB1
:1011600095ED082A30EE4B0A22EE000A30EE011A05
:10117000206895ED050A94ED09CA0128C0F2A28005
:10118000B1EE402AB4EE421AF1EE10FAC8BFB0EE4A
:10119000412AB4EE420AF1EE10FAB8BFB0EE402A8E
:1011A00095ED091A32EE4ABA21EE0B1A94ED0D2A8A
:1011B00031EE0C1A31EE02CA002819DC95ED091A3D
:1011C00030EE4A2A3AEE000A20EE410A22EE012AC7
:1011D000B4EE40CAF1EE10FAC8BFB0EE4C0AB4EE5D
:1011E000402AF1EE10FAB8BFB0EE420AB0EE40CAA3
:1011F000A86B68B340F23100C2F20000007838B347
:10120000B06841F28831484300EE100A9FED391A68
:10121000B8EE400A20EE010A05F006FEBDEEC00A57
:1012200010EE100A41F28731884240F2C061C2F2EA
:101230000001096888BF002031F910009FED2E1AC7
:1012400000EE100AB8EEC00A80EE010A3CEE00CAB9
:1012500095ED04EA9FED26AAB4EE4ECAB0EE4CDA44
:10126000B1EE4EFAF1EE10FAC8BFB0EE4EDAB4EEBF
:101270004FDAF0EE4D0AB0EE4A0AB0EE481AF0EE40
:10128000491AF1EE10FAB8BFF0EE4F0A00F090FAEA
:101290002068012821DBB4EE4ECAF1EE10FA16DC0C
:1012A000B4EE4FDAF1EE10FA11DB95ED0A0A9FED7C
:1012B0000F1A20EE010A94ED0D1A20EE0B0A30EE03
:1012C00001AA0AE09FED0ABA002891DC76E794EDC6
:1012D0000D0A9FED0A1A20EE01AA84ED0DAABDECBD
:1012E000108B01B0F0BD00BF000080B817B75138B7
:1012F000000000000000803800409C45A4707D3F45
:1013000010B52DED028B40F28804C2F20004EFF319
:10131000108072B694ED068A03F09CFD94ED020AEB
:101320009FED171A042840F25000B8EEC00AC2F22E
:1013300000004FF0000120EE010A08BFB0EE408A25
:1013400080ED018AC0E9021180ED048AC0E905112F
:1013500080ED078AC0E90811416380F8281040F247
:101360003410C2F20000012280F83C2040F2C80094
:10137000C2F20000C0E9121162B6BDEC028B10BDD2
:101380000000803840F2C840C2F2000001F08EBA7E
:10139000704740F28800C2F2000014210170002161
:1013A000C0E90411002249F20023C0E90A114CF2FD
:1013B000EC01C4F29D42C4F6C003C4F29D11C0E921
:1013C0000C23C163704700002DE9F04F81B02DED73
:1013D000088B43F6FF7043F6FF76FFF7E3F940F220
:1013E0007419C2F20009D9F8641040F2880AC2F2F6
:1013F000000A01230131CAF8040004BF301ACAF8F8
:10140000040003EBE013C3F306671F4427F07F07D4
:10141000C11109F16C02DB1B52F8211052F8232094
:10142000D9F86850521A00F07F0302FB03F72944F1
:1014300001EBE713C51A2A46B5F5804FA8BF4FF454
:1014400080421A44821A3244B243AD1A25EAE57545
:101450009C1825442D1A2E446FF30D069AF800505F
:101460000644301BCAF808002DB1691E8AF8001026
:10147000CAF80C00D2E0DAF80C50FC11471BCAF88D
:101480000C002B44B7F5005FA8BF4FF400571F4472
:101490001744F71B43F6FF7B5F4427EA0B073B44E7
:1014A00003EB020829444EF20005A6EB0803CFF631
:1014B000FF7513F5005FC8BF1D469AED0BAA9FED9F
:1014C0005ABA21449AED0A0A29442AEE0B1A3944E1
:1014D00031EE008A00EE100A1144B8EEC09AB0EE68
:1014E000480A8D1B05F068FC9FED501A39EE400A42
:1014F000B4EE410AF1EE10FA09DD9FED4D2A00BF6E
:1015000030EE020AB4EE410AF1EE10FAF8DC9FED7B
:10151000491A40F2EC31B4EE410A05EB0B00C2F27D
:101520000001F1EE10FA81ED000A0ADA9FED422A7D
:1015300030EE020AB4EE410AF1EE10FAF8DB81ED6A
:10154000000A9AED0C1A9FED3C2A21EE0B1A21EEAF
:10155000001A31EE081AB4EE421AF1EE10FA6FF3E7
:101560000D0008DD9FED323A31EE031AB4EE421A57
:10157000F1EE10FAF8DCB5EE401A3044F1EE10FA54
:101580008AED0A1A09DA00BF31EE021AB5EE401AE6
:10159000F1EE10FAF8DB8AED0A1A9AED0D1A9AEDBF
:1015A0000F2A21EE0B1A21EE000A30EE0A8AB0EE65
:1015B000C80AB4EE420AA0EB0801F1EE10FA8AED77
:1015C0000B8A04DA9FED1D8A0020CAF82C00DAE9A4
:1015D0000402401842EBE171CAE90401FEF7B9FECA
:1015E00099ED013A9FED174A9FED150AB8EE433A7F
:1015F00023EE043A01EE100A28EE002A23EE094AEF
:1016000021EE001A24EE000A22EE033A8AED061AB1
:101610008AED072A8AED080A8AED093ABDEC088BA3
:1016200001B0BDE8F08F00BF17B751380000004689
:10163000000080C6000000C60000804600000000D8
:1016400000008038DB0FC940EFF3108072B600BF96
:10165000FEE740F20800C2F20000027F02F0FD0146
:10166000012942F20001C4F202010BD10B6843F4DC
:1016700000630B600B6823F400630B600B6843F49A
:1016800000730B6002F0FE02022A0BD10A6842F4DA
:1016900080520A600A6822F480520A600A6842F4A2
:1016A00080620A6000210177704742F21401C4F29F
:1016B0000201CA68520202D448F2040009E0C207DB
:1016C00003D00A6842F004020A60800704D54FF490
:1016D00000400A6810430860086840F480300860E1
:1016E000704742F21402C4F20202D3685B0203D4D0
:1016F000116821F4006106E0C90713680CBF43F4C8
:10170000006123F4006111601168C0B221F47E71A0
:1017100041EAC0001060106840F0020010601068DC
:1017200040F480301060704770B542F210060446F5
:10173000C4F2020601F02CFB054600BF3068C0036E
:1017400006D501F025FB401BA042F7D9032070BD50
:1017500030684CF2FA31014008D040F20800C2F281
:10176000000042680A434260012006E03068C0077A
:101770004FF0000008BF70BD0121316070BD10B591
:1017800040F2C804C2F20004207800B110BDEFF3AB
:10179000108072B60020C4E90600C4E90A00206384
:1017A000C4E9120003F090FF0120207062B610BD62
:1017B00010B52DED0C8B86B040F2C804C2F20004C7
:1017C00094ED032AB0EE41AAB0EE608AD4ED040A8B
:1017D00094ED051AB0EE409A05A804A9B0EE420AAD
:1017E000B0EE61BA05F05CF89DED050ADDED040A86
:1017F00003A802A9B0EE4A1A05F033F994ED020AE3
:10180000B7EE081A81EE000A9DED031A9DED022A3B
:1018100039EE41DA94ED101A38EE42CA94ED122AEC
:1018200094ED133A2DEE014A2CEE011A34EE022A01
:1018300031EE031A22EE008A21EE009A29EE090AFF
:1018400028EE081A31EE001AB1EEC10AB4EE400AD1
:10185000F1EE10FA80F1BD809FED601AB7EE002A1C
:1018600081EE001A94ED120AB4EE421AF1EE10FA6B
:101870000EDA9FED5C2A28EE018A29EE019A94ED9A
:10188000131A20EE020A84ED120A21EE020A11E078
:1018900094ED111A9FED522A94ED133A21EE021A9B
:1018A0002DEE012A32EE000A84ED120A2CEE010A16
:1018B00030EE030A9FED4A1A84ED130A2BEE010A5B
:1018C00030EE0A1A01A86946B0EE480AF0EE490A5D
:1018D00005F059F89DED010ADDED000A04F1340030
:1018E00004F1380104F13C0205F054F9B8BB40F2B0
:1018F0000400C2F20000006841F25971CDF2B71144
:10190000A0FB0101880B00EE100AB8EE400AB6EE0B
:10191000001A20EE010ABDEEC00A94ED0D1AB8EED1
:10192000400A94ED0E2A21EE001A40F28C5094EDFC
:101930000F3ABDEEC11AC2F20000006811EE101A93
:1019400022EE001ABDEEC11A23EE000A416311EE29
:10195000101ABDEEC00A816310EE101AC1639DED2E
:10196000020A94ED072A9FED205A32EE406A26EED5
:10197000056A94ED093A36EE022A9DED036A84ED7C
:10198000072A33EE462A22EE052A32EE032A84ED98
:10199000060A94ED0B4A84ED092A29EE000A28EE86
:1019A000062A32EE000A84ED0A0A34EE400A94ED6B
:1019B000021A20EE050A30EE040A84ED0B0A21EE2D
:1019C000000A84ED086A84ED0C0A06B0BDEC0C8BAD
:1019D00010BDB0EE410A05F090FA3DE74188473F5F
:1019E00017B75138A4707D3F0AD723BCB0B540F279
:1019F000C804C2F20004207860B10025EFF3108023
:101A000072B6C4E90655C4E90A55256303F03AFEE7
:101A1000257062B6B0BD000040F27411C2F2000140
:101A200091ED020A91ED031A91ED0C2A80EE010A64
:101A30009FED103A40F2C80022EE032A9FED0E3AC5
:101A4000C2F20000002122EE011A0170C0E901116A
:101A5000C0E90611C0E90A110163B4EE430AF1EED0
:101A600010FAC8BFB0EE430A80ED101A80ED110ADB
:101A7000704700BFDB0FC9400000FA4440F2741009
:101A8000C2F2000090ED021A90ED032A9FED0C3A8D
:101A900081EE021A20EE030A20EE020A9FED092AC7
:101AA00040F2C800C2F20000B4EE421AF1EE10FAA1
:101AB000C8BFB0EE421A80ED100A80ED111A7047CF
:101AC000DB0FC9400000FA4410B52DED068B82B043
:101AD00040F2C804C2F2000494ED022AB7EE083ABC
:101AE00083EE022AB0EE418A22EE009A22EE20AA6C
:101AF0002AEE0A0A29EE092A32EE002AB1EEC20ABB
:101B0000B4EE400AF1EE10FA5FD69FED321A01A84A
:101B100081EE000AB7EE001A6946B4EE410AF1EE12
:101B200010FAB8BFB0EE401A6AEE010A29EE010AB7
:101B3000B0EE481A04F027FF9DED010ADDED000A22
:101B400004F1340004F1380104F13C0205F022F8FC
:101B5000B8BB40F20400C2F20000006841F25971C3
:101B6000CDF2B711A0FB0101880B00EE100AB8EE10
:101B7000400AB6EE001A20EE010ABDEEC00A94ED4E
:101B80000D1AB8EE400A94ED0E2A21EE001A40F22A
:101B90008C5094ED0F3ABDEEC11AC2F200000068FD
:101BA00011EE101A22EE001ABDEEC11A23EE000A41
:101BB000416311EE101ABDEEC00A816310EE101AD7
:101BC000C16302B0BDEC068B10BDB0EE420A05F059
:101BD00094F99AE74188473F7047704770477047CC
:101BE000704770B590F85820012A01D102217FE09A
:101BF000026840F2080CC5F2000CB2F1A04F0CF1E3
:101C0000F80508D040F20043C5F200039A4231D1F2
:101C10000CF59F6300E02B469B68946823435B07A9
:101C200028D44FF4E063D1F800E0AA4208BF4FF493
:101C30004073B2F1A04F08BF4FF440735CF803400B
:101C4000BEF1000F24F460441AD04D6890F838605B
:101C500042F4807245EA46352C4340F20015C5F245
:101C60000005AA424CF8034019D1DCF80020DCF84A
:101C700000411BE0C16D41F02001C165012134E04C
:101C800042F4807140F20012C5F2000291424CF819
:101C9000034018D1DCF80010DCF800211AE0DCF871
:101CA0000044DCF80055DCF800262C432243D20720
:101CB0001AD15CF8032040F61F748968A2431143CF
:101CC00041EA0E010EE0DCF80024DCF80065DCF8E7
:101CD000001632431143C90706D15CF8031040F6E1
:101CE0001F7291434CF803100021002280F8582005
:101CF000084670BDF0B581B00022009290F85820DF
:101D0000012A01D10221AAE10123076880F8583095
:101D1000BB685B0735D4D1E900631F22C3F30125FB
:101D200007EB85052C6B03F01F039A40C6F384660E
:101D300024EA020206FA03F31A432A63BA68BB686C
:101D400002F0040203F00803D21840F0BB800A68D6
:101D5000042607F1140306EAD25CC2F340668D68DC
:101D600053F82660C2F304540722A240B5F1004F95
:101D700026EA02060BD143F80C601A6842F00043D1
:101D80000DE0C16D41F02001C165012164E105FA5A
:101D900004F2324343F80C201A6822F000437B61BE
:101DA000D1E90436FD68042B5FD13A6E3A6E0B68B8
:101DB000C2F3846293FAA3F6C3F3846C6FF3DF4338
:101DC000B6FA86F5002B2C464FF6FF7E08BF644618
:101DD000A242C0F2070E0CD13A6E22F000423A66DF
:101DE0000A6802EA0E03C2F3846C92FAA2F2B2FA13
:101DF00082F57A6E7A6E002BC2F384622C4608BF9D
:101E00006446A2420CD17A6E22F000427A660A68D9
:101E100002EA0E03C2F3846C92FAA2F2B2FA82F5DD
:101E2000BA6EBA6E002BC2F384622C4608BF6446B9
:101E3000A2420CD1BA6E22F00042BA660A6802EAE7
:101E40000E03C2F3846C92FAA2F2B2FA82F5FA6E31
:101E5000FA6E002BC2F3846208BF6546AA4231D1F4
:101E6000FA6E22F00042FA662CE0062202EA95029F
:101E700006FA02FC0E6807F1600555F823404FF2A0
:101E80000002C0F2FF3206F0F846224046EA0C0695
:101E9000324342F0004245F823200A698B6955F825
:101EA000226026F08076334345F822300A690B7FA2
:101EB00055F82260012B26F0007608BF06F1007667
:101EC00045F82260BA68D2074FD10E68CA68D7F8C1
:101ED000B05033466FF3DF4325EA030C4FF6FF752E
:101EE00002F01804C0F20705E54000243540C4F2B2
:101EF0007F0445EA0C05A242C7F8B05035D18BB13A
:101F000096FAA6F2B2FA82F2013202F01E03092B0F
:101F100002F01F030FD801229A4003EB430342EA69
:101F2000035314E0012202EB966202F01E030A2B17
:101F300002F01F03EFD3012200269A4003EB430374
:101F4000CFF6206606EB03531A4342F00073C3F347
:101F5000406607EB86068A687569C3F30453072455
:101F60009C40A5439A402A4372610D680021C8F243
:101F700008010D426FD040F2001EC5F2000E0EF5B2
:101F800000731C46774518BF0EF5C0642146B7F1B3
:101F9000A04F08BF19468E680022CCF2213295422C
:101FA00006F0E07C04D01022C9F2C002954229D18B
:101FB000320250D440F20062C5F20002974202D0D1
:101FC000B7F1A04F47D18A6822F0E07242EA0C02D2
:101FD00042F400028A6040F20401C2F20001096882
:101FE00042F663528909C0F23E52A1FB02129109E6
:101FF00001EB4101890000BF0091009959B300999C
:102000000139F9E70022CCF25272954208BF16F06E
:10201000807218D00021CCF684318D424FF000013F
:1020200008BF16F4800217D1B7F1A04F02D0774550
:1020300011D02346996821F0E07141EA0C0141F486
:102040008001996007E08A6822F0E07242EA0C029F
:1020500042F080728A600021002280F858200846F1
:1020600001B0F0BD704770470068006C70472DE903
:10207000F04F81B00446016840F20830C5F200001C
:1020800000F58068A0F5027940460E684D68494524
:1020900004BF40F20830C5F20000B1F1A04F04BF08
:1020A00040F20830C5F200000068B20700F01F0AD5
:1020B0000FD515F002000CD0E06DC00603D4E06D22
:1020C00040F40060E0652046FFF786FD21680220AD
:1020D000086040F2001B7007C5F2000B02D515F036
:1020E000040004D1300755D515F0080052D0204621
:1020F00050F85C2FD20603D4026842F400720260EA
:10210000CA6812F4406F3FD159450CD040F20052DA
:10211000C5F2000291420A4617D140F20832C5F2D8
:102120000002F83201E04FF0A0428A420A460CD089
:10213000BAF1090F00F21881012202FA0AF240F204
:1021400021231A420A4600F00F81D26892041BD460
:102150000A68120718D58A6852070BD44A6822F019
:102160000C024A60016821F4807101600168C904B1
:1021700006D509E0E06D40F01000E06504F1600074
:10218000016841F0010101602046FFF76BFF216803
:102190000C200860B00602D515F0200004D17006AE
:1021A0005ED515F040005BD0204650F85C2FD2067B
:1021B00003D4026842F400520260CB6CCA685945ED
:1021C00003F4C0730CD040F20057C5F20007B942C7
:1021D0000F4616D140F20837C5F20007F83701E084
:1021E0004FF0A0478F420F460BD0BAF1070F00F215
:1021F000AB80012707FA0AF717F0C10F0F4600F06E
:10220000A380FF683BB1BB0124D412F4406208BF35
:1022100017F400521ED10A6852061BD517F400129B
:1022200018D18A6812070BD44A6822F060024A600B
:10223000016821F4805101600168C90506D509E0F3
:10224000E06D40F01000E06504F16000016841F0CD
:10225000010101602046FFF7C0FC21686020086092
:1022600030060CD515F0800009D0E06D40F48030C8
:10227000E065204600F0A9F9216880200860F0059B
:102280000DD515F480700AD0E06D40F40030E065A3
:102290002046FFF7A4FC21684FF480700860B00569
:1022A0000DD515F400700AD0E06D40F48020E06593
:1022B0002046FFF795FC21684FF400700860F00697
:1022C00025D515F0100022D0E06B90B1BAF1000FC7
:1022D00036D040F208304945C5F2000008BF8046BC
:1022E000B1F1A04F08BF8046D8F8000010F4604F4D
:1022F0000BD0E06D40F48060E065206E40F002009D
:1023000020662046FFF7AFFE2168102008607005A8
:1023100013D515F4806010D0E06D4FF4806240F466
:102320008040E065206E40F00800206620460A608C
:1023300001B0BDE8F04FFFF751BC01B0BDE8F08F30
:10234000C868C007D5D1E0E759451DD040F2005715
:10235000C5F20007B9420F467FF453AF40F2083789
:10236000C5F20007F8374CE7594510D040F200524B
:10237000C5F2000291420A467FF4E7AE40F208320D
:10238000C5F20002F832E0E64FF0A04739E74FF01F
:10239000A042DAE6B0B582B004460020002C0190DD
:1023A00041D0E06D30B9204600F010F900202066E1
:1023B00084F8580021688868800006D588684FF640
:1023C000C072C5F6FF72104088608868C0001DD4D6
:1023D0004FF6C0728868C5F6FF7202F18052104055
:1023E00000F18050886040F20400C2F200000068F2
:1023F00042F663528009C0F23E52A0FB02029009ED
:102400000190019810B101980138F9E78868C0007F
:102410000BD4E06D40F01000E065206E40F001004C
:102420002066012002E00120CDE000208A68E36DF3
:1024300002F0040203F01003D218E26D17D122F467
:1024400081720232E2658A68D20736D140F2001307
:1024500041F48072C5F2000340F2080C9A42C5F2C2
:10246000000C08D1DCF80030DCF800210BE042F071
:1024700010010120A6E0DCF800E4DCF80025DCF81F
:10248000003642EA0E021A43D20716D10CF1F802C6
:102490004FF4E063D4F804E0914208BF4FF4407376
:1024A000B1F1A04F08BF4FF440735CF8032022F451
:1024B0007C1242EA0E024CF80320627FE36B43EA8F
:1024C0004232D4E902C31A4394F8243042EA0C029F
:1024D000012B42EA034207D1D4F828C00023CFF6EB
:1024E000FE7303EB4C431A43E36A33B1D4F830C0B4
:1024F00003F4787343EA0C031A43D1F80CC044F296
:102500000703CFF6F07303EA0C031A43CA600A69A3
:10251000636B22F040621A430A618A688B6802F09A
:10252000040203F00803D2183ED194F83820237F28
:10253000520042EA833CCB6844F2020223EA0202E0
:1025400042EA0C02CA6022690B6952B143F480333B
:102550000B61D1F8C0C043F6FF732CEA03031A43A2
:1025600007E023F480320A61D1F8C02043F6FF73FC
:102570009A43C1F8C02094F840300A69012B10D169
:1025800040F2FD7322EA030CD4E91132D4E913E5D9
:1025900043EA0C031A4342EA0E022A4342F00102C4
:1025A00001E022F001020A6162690B6B012A23F04B
:1025B0000F0202D1236A013B1A430A63E16D012233
:1025C00062F30101E16502B0B0BD704710B586B09D
:1025D000044601A81421FDF796FE206840F2001180
:1025E000C5F20001884222D0B0F1A04F50D140F294
:1025F0001811C2F200010A6841F24C00C4F2020054
:10260000531C0B6042B9016841F40051016001683C
:1026100001F4005100910099016841F0010101604D
:10262000006800F001000090009807201EE040F2D2
:102630001811C2F200010A6841F24C00C4F2020013
:10264000531C0B6042B9016841F4005101600168FC
:1026500001F4005100910099016841F0010101600D
:10266000006800F001000090009803200190032012
:1026700002900020039001A94FF0904000F0A2FAD0
:1026800012200221002200F002FC122000F0EDFBDB
:1026900006B010BDF0B581B040F208350446C5F271
:1026A00000050068A5F5027105F58062884204BF47
:1026B00040F20832C5F20002B0F1A04F04BF40F270
:1026C0000832C5F2000216688068400703D494F807
:1026D0005800012802D1022001B0F0BD012084F889
:1026E00058002046FDF71EFF18B1002184F858104D
:1026F000F2E72068E16D40F6017240F2001E91435E
:10270000C5F2000E40F2005C06F01F0301F5807177
:102710007045C5F2000CE16504D0604508D105F1B3
:10272000F80101E04FF0A041814218BF002B03D116
:10273000E16D21F48011E165E66D0021F6044FF0B2
:10274000000644BF266E26F0060626661C26066096
:1027500084F85810416821F01C014160A269E66BC1
:1027600011464768082A18BF0421394341601EB941
:10277000416841F010014160704504D060450ED1C0
:1027800005F1F80601E04FF0A046864207D0092B7C
:1027900028D80121994040F22123194222D0C16852
:1027A000890115D5E16D012363F30D31E1654168C0
:1027B0006FF04003082A08BF6FF0200301EA03010D
:1027C000416041684FF0200208BF40221143416040
:1027D00081684FF6C072C7F6FF7211400431816004
:1027E000002079E7E16D704541F48011E16505D085
:1027F0000146604508BF05F1F80101E04FF0A04136
:10280000C9688901ECD5E16D012363F30D31E16500
:102810004168082A06D121F020014160416841F059
:10282000400105E021F040014160416841F0200194
:102830004160D5E780B590F8251002292CD10168B8
:10284000D0E910CE826C0B6823F00E030B600B688E
:1028500023F001030B60116821F4807111600EF008
:102860001F02012101FA02F2CCF80420D0E9133250
:102870005A60426D32B1136823F480731360D0E95B
:102880001623536080F82510826B002180F82410F5
:1028900052B19047002107E00421C16301210022C9
:1028A00080F8251080F82420084680BDB0B5D0E916
:1028B00010C30268DCF8001003F01F030424D2F8F0
:1028C00000E09C400C4218BF1EF004051AD10224FF
:1028D0009C400C4218BF1EF002051FD1D9400907C9
:1028E0001BD51EF0080118D0116821F00E011160EF
:1028F000012101FA03F2CCF80420C16380F825100D
:10290000416B18E01168890603D4116821F00401B5
:102910001160CCF80440016B91B9B0BD1168890613
:1029200006D4116821F00A011160012180F82510F8
:10293000CCF80440C16A0022002980F82420ECD0A1
:10294000BDE8B040084700284FF0010100F08C803E
:102950002DE9F04740F2000CC4F2020C03684FF678
:10296000F8320CF5816ECBF6FD72734538BF02F577
:1029700080624CF6CD441A44CCF6CC44A2FB042829
:1029800003F0FC02A2F10802A2FB04290CF5806509
:102990006FF00304D0E90262D0F810A03CBF00251C
:1029A000C4F2020504EA9804C0E91054022580F834
:1029B00025501D6847F6F07725EA07073A4347692F
:1029C00042EA0A0285693A43C7692A43056A3A43DB
:1029D0002A4332431A600CF50262734538BF0CF586
:1029E0000062A3180CF50862C264C9F3041240F631
:1029F000840C01FA02F2B6F5804FC4F2020C836433
:102A0000026505D1002141601960CCF800201CE06E
:102A100041685FFA81FE013903294FF00001C3F8D4
:102A200000E0CCF8002010D8AEF101020CEB8207D8
:102A300047F87C1F02F01F01012202FA01F30CF19A
:102A4000BC023946CCF8C03001E00022002300F17E
:102A5000540C8CE80E0000210122C16380F825206F
:102A600080F82410BDE8F04708467047B0B504462A
:102A700000F08EF9054640F22800C2F2000000681E
:102A8000611C18BF044400BF00F082F9401BA04243
:102A9000FAD3B0BD2DE9F04740F20809C2F20009AF
:102AA00099F80020012A01D1022664E005460120A0
:102AB00089F800004FF47A708846FEF735FE064626
:102AC000002855D142F200040020C4F20204C9F8E3
:102AD000040021682068890503D4400509D400203A
:102AE0000EE020F4007020602068400503D401202F
:102AF00006E0022000E00320216821F480612160CB
:102B000089F81C00286801280DD16868FEF7CDFD02
:102B10004FF47A70FEF708FE0646606948F2040139
:102B20008843606122E04FF0FF30C8F80000D5E92B
:102B300002703844874215D240F2FA3A6968384642
:102B4000FEF7CFFD4FF47A70FEF7EEFD61690646A1
:102B500021EA0A0060613EB9D5E902010137084463
:102B60008742EBD3002601E0C8F80070FEF771FD44
:102B7000002089F800003046BDE8F08742F21400DA
:102B8000C4F20200016841F0004101600068C043E6
:102B9000C00F704742F20800C4F20200C168B1F1F0
:102BA000FF3FC4BF0020704740F22311C4F26751B9
:102BB000016048F6AB11CCF6EF510160C068C00F60
:102BC000704700002DE9F04F82B00A68002A00F03B
:102BD000D68041F2004500F13847C4F600050623CF
:102BE0004FEAB726A84208BF0523052E38BF4FEA93
:102BF000B72300244FF0010900260027009300BFEF
:102C000009FA07FB12EA0B0800F0A880D1F804C00B
:102C1000BCF1120F00F2AD8009FA0CF212F0061F9F
:102C200000F0A78082680323D1F80CA003FA06FE07
:102C300022EA0E020AFA06F52A43826045684FEA44
:102C40001C1325EA0B05BB404FEA47096FEA0E0E3D
:102C50002B434360C3688D6803EA0E0305FA09F548
:102C60002B434CF01005122DC36015D16FF00302F9
:102C700002EA5703034404F01C020F25D3F820C0D6
:102C800005FA02FA0D692CEA0A0C05FA02F242EA88
:102C90000C021A62D1F804C002680CF0030302EAC5
:102CA0000E0203FA09F31A435FEACC034FF001095D
:102CB000026053D541F26003C4F202031A6840F285
:102CC000004E42F001021A601A68C4F2010E02F0CE
:102CD00001020192019A27F003024FF6084A72445A
:102CE000CFF6FF7A52F80AC004F00C050F23AB4070
:102CF0002CEA030C009B03FA05F545EA0C0342F8A5
:102D00000A30DEF800C04B684CEA0805DA0358BF09
:102D10002CEA0805CEF80050DEF804C09A034CEA0D
:102D2000080558BF2CEA0805CEF80450DEF808C0A4
:102D3000DA024CEA080558BF2CEA080540F20C4CB0
:102D4000CEF80850C4F2010CDCF800209B0242EAE5
:102D5000080558BF22EA0805CCF800500A68013778
:102D600032FA07F306F1020604F104047FF448AFD7
:102D700005E00322B2406FEA020EB1466AE702B0F4
:102D8000BDE8F08F1823002A08BF2823C1507047E0
:102D900044F2D060C2F200000068704740F22800A0
:102DA00044F2D061C2F20000C2F2000100680A6879
:102DB00010440860704780B5032000F093F80020AD
:102DC00000F007F808B1012080BD00F02CF80020C9
:102DD00080BDB0B540F22801C2F200010968F9B126
:102DE000044640F20400C2F200004FF47A72006818
:102DF000B2FBF1F1B0FBF1F000F0E9FF0F2C4FF066
:102E000001050ED868B94FF0FF3021460022002599
:102E100000F03DF840F22C00C2F20000046000E037
:102E200001252846B0BD80B582B041F25800C4F2F9
:102E30000200816841F001018160816801F00101B7
:102E400001910199016841F080510160006800F032
:102E500080500090009800F0A9FF022000F0AEFF23
:102E600002B0BDE8804000F0C8B800280ED4C1B25E
:102E700000F01F00012202FA00F04EF20012CEF222
:102E8000000242EAD10121F003010860704710B549
:102E90004EF60C5CCEF2000CDCF80030C3F3022ED0
:102EA0008EF00704042C28BF0424BEF103034FF066
:102EB000FF3E0EFA04F438BF0023A14399400EFAF6
:102EC00003F39A43114300F00F0200F1604309013C
:102ED000043A03F564436244002848BF02F10C033E
:102EE000197010BD4EF60C51CEF200010A684FF673
:102EF000FF031A4060F30A2242F0806040F0FD7048
:102F000008607047B0F5007F34D000286AD147F2DE
:102F1000000CC4F2000CDCF80010DCF8802001F496
:102F2000C06122F48072B1F5806FCCF8802062D14C
:102F3000DCF80010012262F34A21CCF8001040F2C4
:102F40000401C2F200010968322359434DF683633C
:102F5000C4F21B33A1FB031302EB9341002200BF19
:102F6000DCF81400013942F10003400533D5002B91
:102F7000F6D130E047F2000CC4F2000CDCF800108F
:102F8000DCF8802001F4C06142F48072B1F5806FFA
:102F9000CCF880202FD1DCF80010012262F34A2106
:102FA000CCF8001040F20401C2F20001096832239B
:102FB00059434DF68363C4F21B33A1FB031302EBA9
:102FC00093410022DCF81400013942F1000340056E
:102FD00001D5002BF6D1DCF81400400544BF0320D6
:102FE000704708E047F20000C4F2000001680222C6
:102FF00062F34A2101600020704747F20800C4F2E2
:103000000000016841F48041016070472DE9F04102
:1030100082B00446807841F20C060007C4F2020632
:1030200001D400204FE0F06C10F0805808D1F06C13
:1030300040F08050F064F06C00F0805001900198F6
:1030400047F20007C4F20007386840F48070386027
:10305000FFF79EFE054600BF3868C00506D4FFF79F
:1030600097FE401B0228F7D9032025E0D6F88400FC
:1030700010F4407017D0216D884211D0D6F884002A
:10308000D6F8841020F4407041F48031C6F88410E2
:10309000D6F8841021F48031C6F88410C6F8840074
:1030A000C00740F0E880D6F88400216D20F440701D
:1030B0000843C6F884000020B8F1000F03D1F16C7A
:1030C00021F08051F1642168CA0705D0F26F63686E
:1030D00022F003021A43F2678A0705D5F26FA3684C
:1030E00022F00C021A43F2674A0705D5F26FE36833
:1030F00022F030021A43F2670A0705D5F26F2369FE
:1031000022F0C0021A43F267CA0605D5F26F63695E
:1031100022F440721A43F2678A0605D5F26FA3695A
:1031200022F440621A43F2674A0605D5F26FE3695A
:1031300022F440521A43F2670A0605D5F26F236A59
:1031400022F440421A43F267CA0505D5F26F636A5A
:1031500022F440321A43F2678A0307D5D6F890204A
:10316000A36A22F003021A43C6F890208A0505D507
:10317000F26FE36A22F440221A43F2674A050CD543
:10318000F26F236B22F440121A43B3F5801FF267EB
:1031900003D1326842F4801232600A050CD5F26F16
:1031A000636B22F440021A43B3F5800FF26703D138
:1031B000326842F480123260CA040CD5F26FA36BFD
:1031C00022F040721A43B3F1807FF26703D1326874
:1031D00042F4801232608A040CD5F26FE36B22F065
:1031E00040621A43B3F1006FF26703D1326842F4D0
:1031F000801232604A040CD5F26F236C22F04062D8
:103200001A43B3F1006FF26703D1326842F48012BF
:1032100032600A040CD5F26F636C22F040521A43FC
:10322000B3F1805FF26703D1326842F480323260DA
:10323000CA030CD5F26FA36C22F040421A43B3F1DB
:10324000804FF26703D1326842F480323260490322
:103250000ED5D6F89010E26C21F440111143B2F56E
:10326000001FC6F8901003D1316841F4801131601D
:1032700002B0BDE8F081FFF78BFD054641F28837CB
:10328000D6F8840080073FF50EAFFFF781FD401BA5
:10329000B842F5D9E8E600002DE9F047002865D0EE
:1032A00042F2000AC4F2020A0446DAF800000D46AF
:1032B00000F00F0088420CD2DAF8000020F00F0076
:1032C0002843CAF80000DAF8000000F00F00A84216
:1032D0004CD1206841F20808C107C4F2020803D1AA
:1032E000810700F1828099E0616802293AD00329C0
:1032F0003FD158F8081C890138D5D8F80410D8F8FF
:10330000042042F20047C2F3031201F00301D8F88F
:1033100004300132C0F2F407032904BF43F200670E
:10332000C0F26E17B7FBF2F1D8F80420C3F30623FE
:103330005943C2F34162022303EB4202B1FBF2F1B3
:103340004BF20042C0F2C442914208D9D8F80010B2
:1033500011F0F00F19D0800701D5A068A8B14FF087
:1033600000091BE058F8080C800306D40120BDE8D2
:10337000F08758F8080C4005F8D500F0CCF84BF26F
:103380000041C0F2C4418842E9D9D8F800000821C0
:1033900061F307104FF00109C8F80000D8F80000E9
:1033A000616820F003000843C8F80000FFF7F0FC54
:1033B000064641F2883700BFD8F80000616800F087
:1033C0000C00B0EB810F05D0FFF7E2FC801BB84288
:1033D000F2D940E02068810707D4B9F1000F1DD071
:1033E000D8F8001021F0F00116E0410705D5D8F813
:1033F000001041F4E061C8F80010010706D5D8F8C4
:103400000010072262F30D21C8F80010D8F8001050
:10341000A26821F0F0011143C8F80010DAF800109A
:1034200001F00F01A9421AD9DAF8000020F00F00CC
:103430002843CAF80000FFF7ABFC064641F2883784
:10344000DAF8000000F00F00A84207D0FFF7A0FC58
:10345000801BB842F4D90320BDE8F08720684107FB
:1034600007D5D8F80010E26821F4E0611143C8F8EC
:103470000010000708D5D8F80000216920F460503A
:1034800040EAC100C8F8000000F045F8D8F8001084
:1034900046F66072C1F30311C0F60002515C40F2BF
:1034A000040201F01F0120FA01F140F22C00C2F2E7
:1034B00000000068C2F200021160BDE8F047FFF7AB
:1034C00088BC40F2040041F20801C2F20000C4F2DC
:1034D00002010068096846F67072C1F30221C0F665
:1034E0000002515C01F01F01C840704740F2040027
:1034F00041F20801C2F20000C4F20201006809684A
:1035000046F67072C1F3C221C0F60002515C01F0B0
:103510001F01C840704780B541F20801C4F20201A2
:10352000086842F20042C0F2F40200F00C000428E5
:10353000104608BF80BD086800F00C00082843F260
:103540000060C0F26E1021D00B6803F00C030C2B4E
:103550001CBF002080BDD1F804C04B680CF0030CE8
:10356000C3F3031E4B680EF1010EBCF1030F08BF3D
:1035700002464968B2FBFEF0C3F30623C1F3416182
:103580000222584302EB4101B0FBF1F080BD000084
:103590002DE9F04182B0002800F001810446007856
:1035A00041F20006C007C4F2020654D12078800719
:1035B00072D42078000700F195802078400700F150
:1035C000B3802078800600F1FF80E069002840D0B9
:1035D000B16801F00C010C2940F04C81012800F089
:1035E000DE80F068216A00F003028A4240F0D78052
:1035F000626A6FF00F0300F0F00103EB02129142D8
:1036000040F0CD80A16A00F4FE42B2EB012F40F001
:10361000C680E16A00F07842B2EBC16F40F0BF8033
:10362000226B0023CFF6E07303EA025200F4C001DC
:10363000A2F50012914240F0B280616B4FF07E42E1
:1036400002EA016100F0C06001F17E41884240F071
:10365000A68000205EE1B06800F00C01F068082947
:1036600059D0032281F00C0122EA00000844B0FA8C
:1036700080F040094FD16068B0F5803F07D0B0F5C9
:10368000A02F40F0CC80306840F48020306030685B
:1036900040F480303060CDE0B068F16800F00C009C
:1036A000042866D001F0030180F00C0081F00201D3
:1036B0000844B0FA80F040095BD1E1683068002925
:1036C00000F0C68040F480703060FFF761FB054673
:1036D0003068400500F1E480FFF75AFB401B0228E8
:1036E000F6D916E16169D6F89400002900F08580CA
:1036F00040F00100C6F89400FFF74AFB054600BF02
:10370000D6F8940080073FF558AFFFF741FB401B08
:103710000228F5D9FDE0306880037FF547AF606887
:1037200000287FF443AF3AE0B06D10F0805808D124
:10373000B06D40F08050B065B06D00F080500190E9
:10374000019847F20007C4F200073868C00528D482
:10375000386840F480703860FFF71AFB054600BFF8
:103760003868C0051DD4FFF713FB401B0228F7D9AA
:10377000CFE03068400501D5E06880B1706821690C
:1037800020F0FE4040EA0160706040F22C00C2F27E
:1037900000000068FFF71DFB00283FF40AAF01207E
:1037A000B8E0A068012808D0052840F09680D6F837
:1037B000900040F00400C6F89000D6F8900040F069
:1037C0000100C6F8900095E0A169D6F8980000299C
:1037D0006ED040F00100C6F89800FFF7D9FA054610
:1037E000D6F8980080073FF5F0AEFFF7D1FA401BFE
:1037F00002284FF00300F3D98CE020F00100C6F856
:103800009400FFF7C5FA0546D6F8940080077FF5C7
:10381000D4AEFFF7BDFA401B0228F5D979E0316834
:10382000002821F480313160316821F48021316039
:1038300000F08E80FFF7ACFA054600BF30688003C9
:103840003FF5B4AEFFF7A4FA401B6428F6D960E058
:1038500020F480703060FFF79BFA05463068400521
:103860007FF5A7AEFFF794FA401B02284FF0030044
:10387000F4D94FE03168022821F0807131604CD1D9
:10388000FFF786FA054600BF3068800140F18B8063
:10389000FFF77EFA401B02284FF00300F4D939E00D
:1038A0007068216920F0FE4040EA0160706080E6A7
:1038B00020F00100C6F89800FFF76AFA054600BF3D
:1038C000D6F8980080077FF580AEFFF761FA401BBD
:1038D00002284FF00300F3D91CE0D6F8901021F035
:1038E0000101C6F89010D6F8901021F00401C6F836
:1038F0009010E8B3FFF74CFA054641F2883700BF55
:10390000D6F89000800745D4FFF742FA401BB84232
:10391000F6D9032002B0BDE8F081F0684FF6FF71E0
:1039200020F00300F060F068CFF6EE610840F06030
:10393000FFF72EFA044600BF306880017FF589AE9C
:10394000FFF726FA001B02284FF00300F4D9E1E745
:10395000FFF71EFA054600BF306880037FF526AEEC
:10396000FFF716FA401B64284FF00300F4D9D1E7A3
:10397000FFF70EFA054641F2883700BFD6F89000EF
:10398000800707D5FFF704FA401BB8424FF0030049
:10399000F4D9BFE7B8F1000F7FF413AEB06D20F09B
:1039A0008050B0650DE6F06848F20C01C0F29F113E
:1039B00004F1200700EA010C8ECF6FF00F00D4E96C
:1039C0000C5400EB02100022CFF6E07241EA0C0129
:1039D00002EA05520843A2F500124FF07E4540EA84
:1039E000032005EA0465104305F17E4540EAC760FF
:1039F0002843F060306840F080703060F06840F03C
:103A00008070F060FFF7C4F90446306880013FF52C
:103A100020AEFFF7BDF9001B02284FF00300F4D9D8
:103A200078E740B1B0B50446406A30B1002020616B
:103A300004F1140007E0012070476068B0F5827F50
:103A400003D004F11C00002101600025A56294F858
:103A50005D0020B9204684F85C5000F052F8022046
:103A600084F85D002068D4F80CE00268BEF5E06FD1
:103A700022F0400202604EF4006298BF0125B2F5C8
:103A8000706F1CBF0023A3624FEA053CD4E90135E7
:103A9000D4E9042103F4827305F404452B4402F0B5
:103AA00002021A44A36901F00101E569114403F41B
:103AB0000072114405F03802256A114405F08002B5
:103AC000A56A114405F40052114301600421626AA1
:103AD0000EF4706501EA1341636B45EA0C0502F0D0
:103AE0001002294303F00803114319434160C169DF
:103AF00021F40061C16100200121206684F85D107D
:103B0000B0BD80B586B0006843F20001C4F2010187
:103B1000884223D141F24C00C4F20200416941F4D1
:103B200080514161416901F480510191019901681D
:103B300041F001010160006801A900F0010001905D
:103B40000198E0200190022002900020CDE90300BE
:103B5000052005904FF09040FFF734F806B080BD87
:103B60002DE9F04381B0044690F85C00012801D1B2
:103B7000022018E101201E4615460F4684F85C001D
:103B8000FFF706F994F85D10814601290CD06068B2
:103B9000B0F5827F40F08880A06800284FF00200D6
:103BA00008BF042940F0F980002F4FF0010000F019
:103BB000F480002D00F0F180002E00F0EE8094F8EB
:103BC0005D0004281CBF052084F85D0000202066ED
:103BD0002564A4F84660A4F84460A763E687C4E9B6
:103BE00013002068A687E1684268B1F5E06F22F40F
:103BF0008052134698BF03F58053012E88BF1346A9
:103C000043600268520603D4026842F04002026038
:103C10006268731EB2FA82F2B3FA83F3DDF8208091
:103C200052095B09B1F5E06F43EA02013ED931B1B7
:103C300037F8021BC160A763E08F0138E0870126D7
:103C400008F10105E08F20B9B4F84600002800F023
:103C500099802068816889070CD5E18F51B1012EC8
:103C600008D1A16B002631F8022BC260A163E18F5D
:103C70000139E1878168C9070DD0B4F8461051B108
:103C8000C068216C012621F8020B2164B4F84600BB
:103C90000138A4F84600FFF77BF8002DD2D0A0EB46
:103CA00009004045CED36BE0022076E089B1E18F78
:103CB00002294FF6FE7103D337F8022BC26004E0ED
:103CC0003A7801310273A06B471CA763E08F084468
:103CD000E087012608F10105E08F18B9B4F8460025
:103CE00000284FD020688168890718D5E18FB1B1CD
:103CF000012E14D1E28FA16B022A06D331F8022BD8
:103D0000C260A163E18F023907E009780173A16BFA
:103D100020680131A163E18F01390026E1878168C4
:103D2000C90725D0B4F8461011B3B4F846100229DB
:103D300012D3C168226C22F8021B2264B4F8461028
:103D40000239A4F84610B4F8461001290FD841688A
:103D500041F4805141600AE0007B216C0870206CC6
:103D600001302064B4F846000138A4F8460001266A
:103D7000FFF70EF8002DAFD0A0EB09004045ABD304
:103D800003200AE0204641464A4601F01BFD002878
:103D90000FBF0020202020660120012184F85D1043
:103DA000002184F85C1001B0BDE8F0833020C4F23B
:103DB0000100016821F00101016070473021C4F267
:103DC00001010A6822F00202104308607047411E98
:103DD0000020B0EB116F1CBF012070474EF21002A3
:103DE000CEF2000251604EF62351CEF20001F023D4
:103DF0000B700721906011607047704770477047E3
:103E0000F0B590F83C20012A01D102216BE0D1E904
:103E10000232D1E900CE22F47C5223F470531A43CB
:103E200048F2FF73CFF6F07303EA0E0342EA030E83
:103E30000A692CF477234EEA030C22F476224B69AC
:103E400042EA0C021A430B6B22F4742C23F4702305
:103E50008A6943EA0C0343EA0243026842F6004ED1
:103E6000C4F2010E45F2000C7245C4F2010C18BFF9
:103E7000624520D1CC6923F080532343724518BF9B
:103E800062451FD101F12006002770CECFF6F04722
:103E900023F07C7307EA0656334324F0007423436F
:103EA000724543EA050318BF624512D1C96A23F07F
:103EB00000530B4313E043F20044C4F20104A24256
:103EC000D8D0DBE743F20044C4F20104A242D9D0C7
:103ED00005E043F20047C4F20107BA42E6D00021F0
:103EE000536480F83C100846F0BD70477047704737
:103EF00070B590F83C20012A4FF002025FD080F8A4
:103F00003D20026842F600435468D2F808C0C4F26B
:103F1000010345F2000E9A42C4F2010E18BF724529
:103F200028D14D6824F470042C434FF68F75CFF6DA
:103F3000FF550E682C4042F6FF35C4F201053443AC
:103F4000AA4254600BDC40F2FF73C4F200039A42B1
:103F500017DCB2F1804F27D040F2004319E043F65E
:103F6000FF74C4F20104A24216DC9A421CD043F250
:103F7000004315E043F20045C4F20105AA42D0D047
:103F8000D3E740F60003C4F200039A420CD040F697
:103F90000043C4F2000305E0724505D044F200037B
:103FA000C4F201039A4204D189682CF080031943BA
:103FB00091600121002280F83D1080F83C201046DD
:103FC00070BD704760B310B5044690F83D0028B945
:103FD000002084F83C00204600F024F8022084F8F9
:103FE0003D002068211D01F05AFD012084F84800A1
:103FF00084F83E0084F83F0084F8400084F84100D3
:1040000084F8420084F8430084F8440084F84500B2
:1040100084F8460084F8470084F83D00002010BD75
:104020000120704780B582B00068B0F1804F14D095
:1040300042F60041C4F2010188420CD141F258001D
:10404000C4F20200816841F400618160806800F47C
:1040500000600190019802B080BD41F25800C4F2A6
:1040600002000168002241F00101016000680321A3
:1040700000F00100009000981C20FEF708FF1C20B3
:1040800002B0BDE88040FEF7F0BE90F83D10012977
:104090001CBF01207047022180F83D10016842F6E4
:1040A000FF30C4F2010081420BDC40F2FF70C4F229
:1040B0000000814214DCB1F1804F28D040F2004072
:1040C00016E043F6FF70C4F20100814213DC42F6B1
:1040D0000040C4F20100814219D043F2004012E0D6
:1040E00040F60000C4F20000814210D040F60040CB
:1040F000C4F2000009E045F20000C4F20100814270
:1041000005D044F20000C4F2010081420CD188685D
:104110000722C0F201020240062A4FF0000008D038
:10412000B2F5803F08BF7047086840F001000860A2
:104130000020704780B590F83C20012A4FF0020221
:1041400000F0988080F83D20D0F800C08822DCF88C
:104150000830CFF6CE721A40CCF808200B68B3F5C1
:10416000005F08DA3F2B15DC1F2B48DC002B6FD0DB
:10417000102B6DD078E02F22C0F21002934232DC77
:10418000B3F1101F40DAB3F5005F75D0B3F5801FAF
:104190005ED069E05F2B3ADC402B00F08080502B32
:1041A00062D1D1F804E0C968DCF82030DCF82020C6
:1041B00022F00102CCF82020DCF8182022F0F002D6
:1041C00042EA011123F00A0242EA0E02CCF818106A
:1041D000CCF82020DCF808104FF68872CFF6CF72AA
:1041E000114057313EE04F21C0F210018B4225DCD7
:1041F0003021C0F210018B422AD0402124E0202B34
:1042000026D0302B24D02FE022D020211CE0602BA0
:1042100067D0702B28D1D1E901E3C968DCF8082008
:1042200043EA0E0322F47F4243EA01211143CCF812
:104230000810DCF8081041F0770113E05021C0F2BB
:1042400010018B4204D07021C0F210018B420BD1BF
:10425000DCF808104FF68872CFF6CF721140194380
:1042600041F00701CCF808100121002280F83D1030
:1042700080F83C20104680BDD1E901E3C968DCF834
:10428000082043EA0E0322F47F4243EA012111434E
:10429000CCF80810DCF8081041F48041E2E7D1F8CE
:1042A00004E0C968DCF82030DCF8202022F00102AC
:1042B000CCF82020DCF8182022F0F00242EA0111AC
:1042C00023F00A0242EA0E02CCF81810CCF82020A3
:1042D000DCF808104FF68872CFF6CF7211404731E4
:1042E000C0E7D1F804E0C968DCF8203023F01003FF
:1042F000CCF82030DCF81830DCF8202023F47043B0
:1043000022F0A00243EA013142EA0E12CCF8181062
:10431000CCF82020DCF808104FF68872CFF6CF7268
:10432000114067319EE7704710B50168044608697F
:10433000800744BFC8685FEA80705BD408694007A3
:1043400044BFC8685FEA407060D40869000744BF92
:10435000C8685FEA007066D40869C00644BFC868D0
:104360005FEAC0606BD40869C0071CBFC8685FEA19
:10437000C07071D10869000644BFC8685FEA006078
:1043800072D40869C00544BFC8685FEA006073D48E
:104390000869400644BFC8685FEA406074D4086991
:1043A000800644BFC8685FEA806075D40869C002AF
:1043B00044BFC8685FEAC02076D40869800244BF61
:1043C000C8685FEA802077D40869400244BFC868A3
:1043D0005FEA402078D40869000246BFC8685FEAF7
:1043E000002010BD6FF4000220460A61BDE81040B5
:1043F000FFF7E7BD6FF002000861012020778869B0
:10440000800769D02046FFF78EFF6BE06FF0040055
:10441000086102202077886910F4407F66D020462A
:10442000FFF781FF68E06FF0080008610420207743
:10443000C869800764D02046FFF775FF66E06FF01B
:104440001000086108202077C86910F4407F61D00F
:104450002046FFF768FF63E06FF001000861204627
:1044600000F03AFA216885E76FF080000861204685
:10447000FFF7C4FC216884E76FF480700861204670
:10448000FFF7BBFC216883E76FF04000086120461E
:1044900000F023FA216882E76FF0200008612046CF
:1044A000FFF7ADFC216881E76FF4801008612046BA
:1044B000FFF71CFD216880E76FF4001008612046BB
:1044C000FFF713FD21687FE76FF480000861204645
:1044D000FFF70DFD21687EE7204600F04CF82046EE
:1044E00000F0D7F821680020207727E7204600F069
:1044F00042F8204600F0CDF821680020207724E71C
:10450000204600F038F8204600F0C3F8216800206B
:10451000207721E7204600F02EF8204600F0B9F879
:104520002168002020771EE780B586B0006842F63B
:104530000041C4F2010188421BD141F24C00C4F297
:104540000200016841F001010160006801A900F06A
:104550000100019001984FF4E06001900220029068
:104560000020CDE90300062005904FF09040FEF7B3
:1045700029FB06B080BD7047B0B5044690F83C00FA
:10458000012804BF0220B0BD4FEAB2000D46012150
:10459000052884F83C1047D8DFE800F0030B131B14
:1045A00023332068294601F013FB206850F8181FB8
:1045B0001EE02068294601F04CFB206850F8181FC7
:1045C00026E02068294601F092FB206850F81C1F65
:1045D0000EE02068294601F0D8FB206850F81C1F27
:1045E00016E02068294601F01EFC206850F8501F94
:1045F00041F008010160016821F0040101602969AE
:104600000FE02068294601F03EFC206850F8501F5A
:1046100041F400610160016821F480610160296951
:104620000902026811430160002084F83C00B0BD1B
:1046300060B310B5044690F83D0028B9002084F816
:104640003C00204600F024F8022084F83D00206859
:10465000211D01F024FA012084F8480084F83E006E
:1046600084F83F0084F8400084F8410084F8420058
:1046700084F8430084F8440084F8450084F8460038
:1046800084F8470084F83D00002010BD01207047E9
:104690007047704759B10A1F4FEAB202032A11D876
:1046A000DFE802F002130D1600F13F0312E090F86C
:1046B0003E20012A1BD1022280F83E2028E000F192
:1046C000410307E000F1430304E000F1400301E08F
:1046D00000F142031B78012B09D1032A0DD8DFE832
:1046E00002F002100814022280F83F2010E001209E
:1046F0007047022280F841200AE0022280F843201D
:1047000006E0022280F8402002E0022280F84220E7
:10471000026801F01F010120136A00FA01F18B43C6
:104720001362136A0B43A2F18041A1F596314FEA5F
:10473000B1210729136252D8884010F0E50F4ED0FE
:10474000506C42F6FF31C4F2010140F400408A424D
:1047500050640BDC40F2FF70C4F20000824214DCB3
:10476000B2F1804F28D040F2004016E043F6FF70CF
:10477000C4F20100824213DC42F60040C4F20100A0
:10478000824219D043F2004012E040F60000C4F229
:104790000000824210D040F60040C4F2000009E060
:1047A00045F20000C4F20100824205D044F200004C
:1047B000C4F2010082420CD190680721C0F20101CD
:1047C000014006294FF0000008D0B1F5803F08BF36
:1047D0007047106840F0010010600020704742F6FA
:1047E000FF30C4F201008242B4DD43F6FF70C4F230
:1047F00001008242C0DD44F20000C4F201008242A6
:10480000DAD045F20000C4F201008242E1D1506CDE
:1048100040F400405064CFE710B5026801F01F0E6D
:104820004FF0010C146A0CFA0EF324EA030313622E
:10483000A2F18043A3F59633146A4FEAB323072B02
:10484000146213D80CFA03F313F0E50F0ED0136AB9
:1048500041F2111423420FD1136A44F2444423421B
:104860000AD1536C23F40043536405E045F200037E
:10487000C4F201039A42EAD0136A41F211142342AE
:1048800008D1136A44F24444234203D1136823F04D
:10489000010313604FEAB101042908D8DFE801F0F1
:1048A000030B0F131700012180F83E1012E00121C5
:1048B00080F843100EE0012180F83F100AE001214A
:1048C00080F8401006E0012180F8411002E001214B
:1048D00080F84210002010BD7047704790F87C109F
:1048E000012901D1022112E02421C0F880100268C0
:1048F0001168136823F00103136021F000530021B5
:10490000416613602022C0F8802080F87C100846A1
:1049100070477047B0B5044690F87C00012804BF8A
:104920000220B0BD012084F87C002420C4F880005F
:1049300020680568026822F001020260826822F0A5
:10494000606211438160204601F068FC20680560C8
:104950002020C4F88000002084F87C00B0BDB0B5F1
:10496000044690F87C00012804BF0220B0BD01205D
:1049700084F87C002420C4F8800020680568026860
:1049800022F001020260826822F0604211438160DD
:10499000204601F043FC206805602020C4F8800018
:1049A000002084F87C00B0BD70477047704770B538
:1049B00001680446CA6940F62F000E688B681040F3
:1049C000202807D106F0200003F08055401912D0AE
:1049D000E16EA8E040F60F0002420CD00120C1F2C7
:1049E000000003EA000C40F22010C0F2004030400A
:1049F00010EB0C0028D1D0020AD513F4800007D0A8
:104A00004FF4801220460A62BDE87040FFF7CDBF28
:104A1000100606D506F0800003F40003C01840F02D
:104A20008180500674D516F0400071D0086820F0DF
:104A30004000086020200021C4F880002046216743
:104A4000BDE8704000F038B9D00718BF16F4807088
:104A500007D001200862D4F8880040F00100C4F8B3
:104A60008800900703F0010E0AD5BEF1000F07D0B1
:104A700002200862D4F8880040F00400C4F88800DE
:104A800050070AD5BEF1000F07D004200862D4F801
:104A9000880040F00200C4F8880010070CD506F02A
:104AA000200050EA0C0007D008200862D4F88800E3
:104AB00040F00800C4F8880010050BD516F080609F
:104AC00008D04FF400600862D4F8880040F020005D
:104AD000C4F88800D4F88800002857D012F02000CD
:104AE0001EBF06F0200003F0805210EB020053D1ED
:104AF000D4F888008A6800F0280002F0400280188C
:104B000020D12046FFF752FF0020C4F888003DE086
:104B100010020DD516F080400AD02046BDE8704046
:104B2000FFF742BF216F89B32046BDE870400847B8
:104B3000D0012BD5B6F1FF3F28DC2046BDE8704000
:104B4000FFF7E7BE08684FF6FE7220F49070086029
:104B50008868CEF6FF72104088602020C4F8840078
:104B60000020E0668868400611D5886820F0400083
:104B70008860A06F58B146F2A131C0F60001816390
:104B8000FDF758FE10B1A06F816BCEE770BD2046D7
:104B9000BDE87040FFF70ABFE26E002AA8D02046A9
:104BA00090472168A4E710B5B0B10446D0F8800062
:104BB00028B9002084F87C00204600F026F8242044
:104BC000C4F880002068016821F0010101602046DE
:104BD00001F0EEFB012801D1012010BDA06A10B147
:104BE000204601F042FB2168486820F4904048606C
:104BF000886820F02A008860086840F0010220469A
:104C00000A60BDE8104001F096BB70B586B004465E
:104C1000006844F60001C4F2000188424AD141F222
:104C20004C00C4F20200C168002641F48021C1603A
:104C3000C16801F4802101910199016841F00201EC
:104C40000160006801A900F00200019001984FF492
:104C500040600190022002900720059040F2004041
:104C6000C4F60000CDE90366FDF7ACFF40F2C8458D
:104C70000820C2F20005C4F202001C2185E84300AE
:104C80004FF480508022202328622846C5E9036221
:104C9000C5E90566EB61FDF756FE08B1FCF7D4FCEB
:104CA000272002210022A567AC62FEF7F0F827203A
:104CB000FEF7DBF806B070BD704788B144F2D461EE
:104CC000C2F200010A7850F8043C002A18BF4FF0E5
:104CD00000421A4204D0A0F1080CDCF8001001B127
:104CE000704723EA020144F2D86240F8041CC2F281
:104CF0000002106801446046116001F0DBBE000054
:104D0000F0B581B040F2CC62C2F20002116849B144
:104D100044F2D461C2F200010B78002B18BF4FF0AF
:104D2000004336E040F2D061C2F20001CF1D27F00F
:104D3000070711F00703A1EB070618BF394644F235
:104D4000E067C2F200070025C7E900154FF480476D
:104D5000002B18BF06F58047CB1923F00703A3F1FA
:104D60000807176043E902557B1AC1E9007344F252
:104D7000DC61C2F200010B6044F2D861C2F20001B2
:104D80000B6044F2D461C2F2000101230B704FF0BA
:104D9000004300284FF0000156D0034054D120F0CA
:104DA000070101F11003410708BF00F10803002BC0
:104DB0004FF0000148D044F2D865C2F200052868DF
:104DC000834241D844F2E060C2F20000076879688B
:104DD00099420ED23C6844B16168384627469942F0
:104DE00007D23C68002CF7D103E044F2E060C2F245
:104DF00000001268974226D006683A68C91A11293D
:104E0000026004D3F81841607B6001F053FE44F265
:104E1000DC6278682968C2F2000214680B1AA342A7
:104E20002B6038BF136044F2D462C2F200021278E1
:104E300006F10801002A4FF0000218BF40F00040C0
:104E4000C7E9002000E00021084601B0F0BD0000E5
:104E5000FEE7000040F2B460C2F200000078704744
:104E6000B0B540F2B464C2F20004607821788842A0
:104E700069D02078042829D8DFE800F026030C2127
:104E8000240040F2B260C2F200000188E1B10139B1
:104E900001801BE0FCF7AAFD40F22410C2F20000E2
:104EA000016821F001010160016821F00201016047
:104EB000006840F22C11C2F20001086004E0FBF728
:104EC000A2FC01E0FBF764FB0120A070A078D0B346
:104ED000607820702078042818D0032831D0022868
:104EE00031D1FCF70DFA40F22410C2F20000016843
:104EF00041F001010160016841F0020101600068B8
:104F000040F22C11C2F2000108601CE0FCF7F8F935
:104F100001F0F0FB00BF00BF00BF00BF00BF00BF3B
:104F200000BF00BF00BF00BF00BF00BF00BF00BF89
:104F300000BF00BF00BF00BF00BF00BFFBF720FCE9
:104F400001E0FBF7ABFFFCF73FFA40F2C805C2F205
:104F5000000595ED020A0020BAEE081A9FED2B2AF3
:104F6000C4F2401030EE011A686021EE021A40F2DD
:104F7000F03031EE000AC2F2000085ED020AFDF7C2
:104F800073F840F2C861C2F20001B1F9001000B23A
:104F9000401A00EE100A9FED1E1AB8EEC00A40F249
:104FA0005C4020EE010AC2F2000085ED030AFDF725
:104FB0005BF840F2CA61C2F20001B1F9001000B220
:104FC000401A00EE100A9FED131AB8EEC00A95EDD4
:104FD000033A20EE012A20EE410A32EE431A85ED13
:104FE000040A85ED051A207802280AD0042806D084
:104FF000032818BFB0BDBDE8B040FBF725BCFBF7E8
:10500000D7FABDE8B040FBF793BF00BFCDCC4CBD95
:10501000410804BC4108043C40F2B460C2F2000004
:10502000002101704170817040F22410C2F2000032
:10503000017001710168406840F22C12C2F2000256
:105040005060116070470000B0B540F2B465C2F224
:10505000000529780446012905D079B9012C0FD023
:105060004FF0FF3048E0601E03280ED8DFE800F064
:1050700002101922FCF7BAFC002036E0012C01D105
:10508000012437E04FF0FF3036E04FF0FF3033E0DF
:1050900040F22410C2F200000079A0B16FF00100CC
:1050A0002AE040F22410C2F200000079D0B16FF083
:1050B000010021E040F22410C2F20000007958B152
:1050C0006FF0010018E040F27410C2F20000006EB0
:1050D00040B96FF002000FE040F27410C2F200001D
:1050E000006E60B1FCF74BFBC82040F2B261C2F227
:1050F0000001088000206C700021A970B0BD6FF025
:105100000200F9E710B58CB0002401A82021CDE9F8
:105110000A44FBF7F8F840F2F030C2F200004FF01A
:10512000A0414FF4403280E81600012104230162BF
:105130004FF4A4614FF48062C0E90344C0E9054321
:10514000848380F82440C0E90B1280F83840C4639F
:1051500080F84040FDF71EF908B1FCF775FA40F2FF
:10516000F030C2F2000009A90994FCF73AFD08B139
:10517000FCF76AFA0820C0F69040019006200290E1
:10518000012003907F2004900420059000200690C9
:1051900040F2F030C2F2000001A9FCF7ABFD08B10B
:1051A000FCF752FA0CB010BD70B588B040F25C400C
:1051B00040F20011C2F20000C5F200014FF440328B
:1051C0000024042580E8160001264FF4A4614FF462
:1051D0008062CDE90644C0E90344C0E90545848303
:1051E000066280F82440C0E90B1280F83840C4639E
:1051F00080F84040FDF7CEF808B1FCF725FA04200E
:10520000C0F6600000900620CDE901067F20CDE9C0
:10521000030540F25C40C2F2000069460594FCF7C9
:1052200069FD08B1FCF710FA08B070BD80B582B016
:1052300041F24800C4F202000168002241F004017A
:105240000160016801F0040101910199016841F0D8
:10525000010101600068002100F001000090009849
:105260000B20FDF714FE0B2002B0BDE88040FDF7D7
:10527000FCBD2DE9F04186B0002641F24C00CDE99D
:105280000466C4F20200016840F2004441F02001CB
:1052900001600168C4F6000401F02001009100994A
:1052A0000168012241F00101016001684FF480486A
:1052B00001F00101009100990168012741F002010C
:1052C000016000684FF4804100F0020000900098F7
:1052D0002046FDF757FD4FF420400190032001AD1B
:1052E000CDE9020620462946FDF76CFC0220049019
:1052F00020462946CDE901870396FDF763FC06B0F9
:10530000BDE8F081B0B540F2285043F20001C2F28E
:105310000000C4F201014FF4827200234FF4706C5C
:105320004FF0010E4FF40074202580E80E10072185
:10533000C0E9043EC0E90645C0E90833C0E90A31C6
:10534000C0E90C33FEF76DFB18B1BDE8B040FCF7C7
:105350007BB9B0BDB0B59CB00EAC002520461C2179
:105360001B95CDE919551795CDE91555FAF7CBFFE2
:1053700001A83421FAF7C7FF40F28C5042F60041F1
:10538000C2F20000C4F201012022C0E9001500F1C0
:10539000080141F29A032CC1C0E90555FEF712FE3F
:1053A00008B1FCF751F94FF48050189040F28C503E
:1053B000C2F2000018A9FEF7BDFE08B1FCF744F9DF
:1053C00040F28C50C2F20000FFF732F908B1FCF74E
:1053D0003BF9202015900020CDE9160040F28C50BA
:1053E000C2F2000015A9FEF783FD08B1FCF72CF905
:1053F00060200E90201D1821FAF785FF40F28C5096
:10540000C2F20000214600220024FFF7B5F808B1DF
:10541000FCF71AF940F28C50C2F200000EA90422E7
:105420000F94FFF7A9F808B1FCF70EF940F28C5081
:105430000025C2F200000EA908220F95FFF79CF884
:1054400008B1FCF701F901AC20461421FAF75BFF23
:105450004FF40050CDE906054FF00070CDE90A0584
:1054600040F28C50C2F200002146CDE90855CDE94A
:105470000C55FEF7C5FC08B1FCF7E6F840F28C507D
:10548000C2F20000FFF750F81CB0B0BD80B588B084
:1054900040F2D8500021C2F200004FF0804241F2A9
:1054A00090030791CDE905110291C0E90021C0E9FF
:1054B000021301618161FEF785FD08B1FCF7C4F8B4
:1054C0004FF48050049040F2D850C2F2000004A97A
:1054D000FEF730FE08B1FCF7B7F82020019000205D
:1054E000039040F2D850C2F2000001A9FEF700FD7F
:1054F00008B1FCF7A9F808B080BD10B540F22464EB
:1055000044F60000C2F20004C4F200004FF4E1319E
:1055100000220C2384E8070004F118001421C4E9D8
:1055200003226361FAF7EFFE2046FFF73CFB08B168
:10553000FCF78AF840F22460C2F200000021FFF775
:105540000EFA08B1FCF780F840F22460C2F20000C5
:105550000021FFF7DFF908B1FCF776F840F224608C
:10556000C2F20000FFF7BAF918B1BDE81040FCF72D
:105570006BB810BDFEE70000FEE700002DE9F04F1C
:1055800081B02DED028B40F28C50C2F20000016818
:105590006FF00100086100BF0869C007FCD042F647
:1055A000244440F2040541F2597640F25C4A6FF01F
:1055B000010B0027C4F20104C2F20005CDF2B716B8
:1055C000B6EE008AC2F2000A4FF000094FF0000860
:1055D000C1F810B00869C00724D020682A68A2FB6F
:1055E00006239A0B00EE102AB8EE400A20EE080AB5
:1055F000BDEEC00A10EE102AB0EB520F12D940F2E5
:10560000F030C2F20000C1F810B00137FCF72CFDF9
:1056100081445046FCF728FD40F28C51C2F2000153
:1056200009688044402FD5DB99FBF7F040F2C86150
:105630004FF6FF73C2F20001CFF23773088003EB1D
:1056400000406FF0C87398FBF7F198424FF2377340
:10565000CFF6FF734FF0000013FA81F340F2CA62F5
:1056600038BF012013F5C97F4FF00003C2F20002DA
:1056700098BF0123184340421180BDEC028B01B05A
:10568000BDE8F08F10B540F28C54C2F20004204601
:105690000021FFF7C1F820460421FFF7BDF820469E
:1056A0000821FFF7B9F82068016841F001010160A5
:1056B0006FF00101016100BF0169C907FCD06FF003
:1056C0000101016110BD000010B540F28C50C2F222
:1056D00000000068002141638163C1636FF0010134
:1056E000016100BF0169C907FCD040F28C546FF022
:1056F0000101C2F20004016120460021FEF7CAFF49
:1057000020460421FEF7C6FF20460821BDE81040D0
:10571000FEF7C0BF10B540F2F030C2F20000FCF757
:10572000B9FF40F25C40C2F20000FCF7B3FF012079
:10573000FDF79CF942F21000CEF20400016840F23D
:105740008C5441F40061C2F2000401602046002143
:10575000FEF7A0FF20460421FEF79CFF204608210B
:10576000FEF798FF40F20400C2F20000006841F228
:105770005971CDF2B711A0FB0101880B00EE100AA0
:10578000B8EE400AB6EE001A20EE010ABDEEC00ADD
:1057900010EE100A2168400848638863C8632046F9
:1057A0000021FFF739F820460421FFF735F820469D
:1057B0000821FFF731F82068016841F0010101601C
:1057C00010BD704770B515460E464FF4C0513246B5
:1057D0002B46044600F044F868B9204631462A4674
:1057E00000F0A4F838B920464FF4C06132462B4689
:1057F00000F036F828B1206E40F02000206603202B
:1058000070BD002070BD000070B582B040F200464F
:10581000C4F60006ADF8060030464FF48041002281
:10582000FDF7B0FA40F22855C2F200054FF0FF3400
:105830000DF1060101AA284601230094FEF790F914
:1058400028688068800701D400BFF9E730464FF42C
:1058500080410122FDF796FABDF8040002B070BD48
:105860002DE9F04381B01E4690460D468146FDF776
:105870008FFA301A00EB0807FDF78AFA40F20401AC
:10588000C2F20001096823225143090D79430091B6
:10589000D9F800108A682A4219D0064608F1010496
:1058A000B5F5C06F08BF087B74B1FDF771FA801BB6
:1058B000B8420ED2009800990028A1F10101009190
:1058C000D9F8001008BF074688682842E8D10020B0
:1058D00028E0D9E900014268B1F5827F22F0E002B8
:1058E00042600BD1D9F80810B1F5004F02D0B1F5E4
:1058F000806F03D1016821F040010160D9F82810C0
:10590000B1F5005F07D1016821F400510160016821
:1059100041F400510160012089F85D00002089F800
:105920005C00032001B0BDE8F0830000F0B581B059
:1059300015460E460446FDF72BFA281A8719FDF77F
:1059400027FA40F20401C2F200010968C1F3CB3129
:105950007943009121688A68120613D505460136FD
:105960006EB1FDF715FA401BB8420DD200980099B0
:105970000028A1F101010091216808BF074688684D
:105980000006EDD4002026E0D4E900014268B1F51C
:10599000827F22F0E00242600AD1A168B1F5004F97
:1059A00002D0B1F5806F03D1016821F040010160A0
:1059B000A16AB1F5005F07D1016821F400510160CF
:1059C000016841F400510160012084F85D0000206D
:1059D00084F85C00032001B0F0BD7047FDF7DEB92C
:1059E00070B5A8B01AAC04F108001421FAF78BFCCA
:1059F00068465421FAF787FC00200025FDF782FA5B
:105A000001201A904FF4803006211B900220239130
:105A1000552121900326CDE92410CDE9260020460A
:105A20002296FDF7B5FD20B1EFF3108072B600BFEE
:105A3000FEE70F20CDE9150615A80421CDE917557D
:105A40001995FDF729FC20B1EFF3108072B600BF65
:105A5000FEE748F204000090002003904FF0005051
:105A600011906846FDF7D2FA18B1EFF3108072B6C4
:105A7000FEE728B070BD4EF60850CEF20000D0F818
:105A8000801041F47001C0F880104FF00061016097
:105A9000704740F2D850C2F20000FEF745BC80B516
:105AA00040F6FF330268C4F2000343F2FF3C984221
:105AB000C4F2010C0ADD604516DC40F60043C4F276
:105AC000000398421CD042F6004315E0B0F1804F2D
:105AD00016D040F20043C4F20003984210D040F6C2
